{
  "transactions": [
    {
      "hash": "0x465b3f6a4327f846950256f0145c2f7dd4f91eee82a1918a2cf30c82fb6c224a",
      "transactionType": "CALL",
      "contractName": "LinkToken",
      "contractAddress": "0x779877A7B0D9E8603169DdbD7836e478b4624789",
      "function": "transferAndCall(address,uint256,bytes):(bool)",
      "arguments": [
        "0x8103B0A8A00be2DDC778e6e7eaa21791Cd364625",
        "3000000000000000000",
        "0x000000000000000000000000000000000000000000000000000000000000140f"
      ],
      "transaction": {
        "type": "0x02",
        "from": "0xe62664184ca45d8b99bb6a92d31f8833951f4e30",
        "to": "0x779877a7b0d9e8603169ddbd7836e478b4624789",
        "gas": "0x1b43f",
        "value": "0x0",
        "data": "0x4000aea00000000000000000000000008103b0a8a00be2ddc778e6e7eaa21791cd36462500000000000000000000000000000000000000000000000029a2241af62c000000000000000000000000000000000000000000000000000000000000000000600000000000000000000000000000000000000000000000000000000000000020000000000000000000000000000000000000000000000000000000000000140f",
        "nonce": "0x1",
        "accessList": []
      },
      "additionalContracts": [],
      "isFixedGasLimit": false
    }
  ],
  "receipts": [
    {
      "transactionHash": "0x465b3f6a4327f846950256f0145c2f7dd4f91eee82a1918a2cf30c82fb6c224a",
      "transactionIndex": "0x4",
      "blockHash": "0xad89f3437162989d724871529e4abf24a2ab309d154e383559aef5efda5abace",
      "blockNumber": "0x411bfa",
      "from": "0xE62664184ca45D8b99Bb6a92D31f8833951F4e30",
      "to": "0x779877A7B0D9E8603169DdbD7836e478b4624789",
      "cumulativeGasUsed": "0x90aec",
      "gasUsed": "0x12a4a",
      "contractAddress": null,
      "logs": [
        {
          "address": "0x779877A7B0D9E8603169DdbD7836e478b4624789",
          "topics": [
            "0xddf252ad1be2c89b69c2b068fc378daa952ba7f163c4a11628f55a4df523b3ef",
            "0x000000000000000000000000e62664184ca45d8b99bb6a92d31f8833951f4e30",
            "0x0000000000000000000000008103b0a8a00be2ddc778e6e7eaa21791cd364625"
          ],
          "data": "0x00000000000000000000000000000000000000000000000029a2241af62c0000",
          "blockHash": "0xad89f3437162989d724871529e4abf24a2ab309d154e383559aef5efda5abace",
          "blockNumber": "0x411bfa",
          "transactionHash": "0x465b3f6a4327f846950256f0145c2f7dd4f91eee82a1918a2cf30c82fb6c224a",
          "transactionIndex": "0x4",
          "logIndex": "0x8",
          "removed": false
        },
        {
          "address": "0x779877A7B0D9E8603169DdbD7836e478b4624789",
          "topics": [
            "0xe19260aff97b920c7df27010903aeb9c8d2be5d310a2c67824cf3f15396e4c16",
            "0x000000000000000000000000e62664184ca45d8b99bb6a92d31f8833951f4e30",
            "0x0000000000000000000000008103b0a8a00be2ddc778e6e7eaa21791cd364625"
          ],
          "data": "0x00000000000000000000000000000000000000000000000029a2241af62c000000000000000000000000000000000000000000000000000000000000000000400000000000000000000000000000000000000000000000000000000000000020000000000000000000000000000000000000000000000000000000000000140f",
          "blockHash": "0xad89f3437162989d724871529e4abf24a2ab309d154e383559aef5efda5abace",
          "blockNumber": "0x411bfa",
          "transactionHash": "0x465b3f6a4327f846950256f0145c2f7dd4f91eee82a1918a2cf30c82fb6c224a",
          "transactionIndex": "0x4",
          "logIndex": "0x9",
          "removed": false
        },
        {
          "address": "0x8103B0A8A00be2DDC778e6e7eaa21791Cd364625",
          "topics": [
            "0xd39ec07f4e209f627a4c427971473820dc129761ba28de8906bd56f57101d4f8",
            "0x000000000000000000000000000000000000000000000000000000000000140f"
          ],
          "data": "0x000000000000000000000000000000000000000000000000000000000000000000000000000000000000000000000000000000000000000029a2241af62c0000",
          "blockHash": "0xad89f3437162989d724871529e4abf24a2ab309d154e383559aef5efda5abace",
          "blockNumber": "0x411bfa",
          "transactionHash": "0x465b3f6a4327f846950256f0145c2f7dd4f91eee82a1918a2cf30c82fb6c224a",
          "transactionIndex": "0x4",
          "logIndex": "0xa",
          "removed": false
        }
      ],
      "status": "0x1",
      "logsBloom": "0x0000001400000000000000000000000000000000000100020000000002000000000000000000800000000000000000000000000000000000000000000000000000000000000000000000000800000000000000000000000000002000000000000000000000000000000000000000800000000000400000800000001000000000000000000c000020000000000000800010010020000000000000000000000000000000000000000000000000040000000000000000000000000400000000000000000002000000000000000008000000000000000000000100000000000000000000000000000000000000000000000000000000000000000000000000000000",
      "type": "0x2",
      "effectiveGasPrice": "0xb2d05e0c"
    }
  ],
  "libraries": [],
  "pending": [],
  "returns": {},
  "timestamp": 1694431947,
  "chain": 11155111,
  "multi": false,
  "commit": "209a1d8"
}